{
  "contractName": "V",
  "abi": [
    {
      "inputs": [],
      "stateMutability": "nonpayable",
      "type": "constructor"
    },
    {
      "inputs": [
        {
          "internalType": "string",
          "name": "_username",
          "type": "string"
        },
        {
          "internalType": "string",
          "name": "_password",
          "type": "string"
        }
      ],
      "name": "SignUp",
      "outputs": [],
      "stateMutability": "nonpayable",
      "type": "function"
    },
    {
      "inputs": [
        {
          "internalType": "string",
          "name": "_password",
          "type": "string"
        }
      ],
      "name": "Login",
      "outputs": [],
      "stateMutability": "nonpayable",
      "type": "function"
    },
    {
      "inputs": [],
      "name": "Logout",
      "outputs": [],
      "stateMutability": "nonpayable",
      "type": "function"
    },
    {
      "inputs": [
        {
          "internalType": "string",
          "name": "_content",
          "type": "string"
        }
      ],
      "name": "AddVit",
      "outputs": [],
      "stateMutability": "nonpayable",
      "type": "function"
    },
    {
      "inputs": [
        {
          "internalType": "address",
          "name": "_user",
          "type": "address"
        }
      ],
      "name": "UserVits",
      "outputs": [
        {
          "components": [
            {
              "components": [
                {
                  "internalType": "address",
                  "name": "login",
                  "type": "address"
                },
                {
                  "internalType": "string",
                  "name": "password",
                  "type": "string"
                },
                {
                  "internalType": "string",
                  "name": "username",
                  "type": "string"
                },
                {
                  "internalType": "string",
                  "name": "image",
                  "type": "string"
                }
              ],
              "internalType": "struct V.User",
              "name": "author",
              "type": "tuple"
            },
            {
              "internalType": "string",
              "name": "content",
              "type": "string"
            },
            {
              "internalType": "uint256",
              "name": "likes",
              "type": "uint256"
            },
            {
              "internalType": "uint256",
              "name": "created",
              "type": "uint256"
            }
          ],
          "internalType": "struct V.Vit[]",
          "name": "",
          "type": "tuple[]"
        }
      ],
      "stateMutability": "view",
      "type": "function",
      "constant": true
    },
    {
      "inputs": [
        {
          "internalType": "address",
          "name": "_user",
          "type": "address"
        }
      ],
      "name": "CheckSignUp",
      "outputs": [
        {
          "internalType": "bool",
          "name": "",
          "type": "bool"
        }
      ],
      "stateMutability": "view",
      "type": "function",
      "constant": true
    },
    {
      "inputs": [
        {
          "internalType": "address",
          "name": "_user",
          "type": "address"
        }
      ],
      "name": "GetUser",
      "outputs": [
        {
          "components": [
            {
              "internalType": "address",
              "name": "login",
              "type": "address"
            },
            {
              "internalType": "string",
              "name": "password",
              "type": "string"
            },
            {
              "internalType": "string",
              "name": "username",
              "type": "string"
            },
            {
              "internalType": "string",
              "name": "image",
              "type": "string"
            }
          ],
          "internalType": "struct V.User",
          "name": "",
          "type": "tuple"
        }
      ],
      "stateMutability": "view",
      "type": "function",
      "constant": true
    },
    {
      "inputs": [
        {
          "internalType": "string",
          "name": "_image",
          "type": "string"
        }
      ],
      "name": "UpdateUser",
      "outputs": [],
      "stateMutability": "nonpayable",
      "type": "function"
    }
  ],
  "bytecode": "0x6080604052600060045534801561001557600080fd5b50336000806101000a81548173ffffffffffffffffffffffffffffffffffffffff021916908373ffffffffffffffffffffffffffffffffffffffff1602179055506119be806100656000396000f3fe608060405234801561001057600080fd5b50600436106100885760003560e01c8063615a563e1161005b578063615a563e146101115780636474182b146101415780636e820a911461015d578063d2ecf4f81461018d57610088565b80630b2d89241461008d5780633b1a3ac7146100a95780634cbf3e74146100d957806358603d63146100f5575b600080fd5b6100a760048036038101906100a29190611134565b610197565b005b6100c360048036038101906100be919061110b565b610363565b6040516100d091906115fb565b60405180910390f35b6100f360048036038101906100ee9190611134565b6105c8565b005b61010f600480360381019061010a9190611175565b610628565b005b61012b6004803603810190610126919061110b565b610839565b6040516101389190611560565b60405180910390f35b61015b60048036038101906101569190611134565b6108d4565b005b6101776004803603810190610172919061110b565b610ad7565b604051610184919061153e565b60405180910390f35b610195610ec7565b005b600073ffffffffffffffffffffffffffffffffffffffff16600160003373ffffffffffffffffffffffffffffffffffffffff1673ffffffffffffffffffffffffffffffffffffffff16815260200190815260200160002060000160009054906101000a900473ffffffffffffffffffffffffffffffffffffffff1673ffffffffffffffffffffffffffffffffffffffff161415610269576040517f08c379a0000000000000000000000000000000000000000000000000000000008152600401610260906115bb565b60405180910390fd5b8080519060200120600160003373ffffffffffffffffffffffffffffffffffffffff1673ffffffffffffffffffffffffffffffffffffffff1681526020019081526020016000206001016040516102c09190611527565b604051809103902014610308576040517f08c379a00000000000000000000000000000000000000000000000000000000081526004016102ff9061157b565b60405180910390fd5b6001600360003373ffffffffffffffffffffffffffffffffffffffff1673ffffffffffffffffffffffffffffffffffffffff16815260200190815260200160002060006101000a81548160ff02191690831515021790555050565b61036b610fad565b600160008373ffffffffffffffffffffffffffffffffffffffff1673ffffffffffffffffffffffffffffffffffffffff1681526020019081526020016000206040518060800160405290816000820160009054906101000a900473ffffffffffffffffffffffffffffffffffffffff1673ffffffffffffffffffffffffffffffffffffffff1673ffffffffffffffffffffffffffffffffffffffff16815260200160018201805461041b90611783565b80601f016020809104026020016040519081016040528092919081815260200182805461044790611783565b80156104945780601f1061046957610100808354040283529160200191610494565b820191906000526020600020905b81548152906001019060200180831161047757829003601f168201915b505050505081526020016002820180546104ad90611783565b80601f01602080910402602001604051908101604052809291908181526020018280546104d990611783565b80156105265780601f106104fb57610100808354040283529160200191610526565b820191906000526020600020905b81548152906001019060200180831161050957829003601f168201915b5050505050815260200160038201805461053f90611783565b80601f016020809104026020016040519081016040528092919081815260200182805461056b90611783565b80156105b85780601f1061058d576101008083540402835291602001916105b8565b820191906000526020600020905b81548152906001019060200180831161059b57829003601f168201915b5050505050815250509050919050565b6000600160003373ffffffffffffffffffffffffffffffffffffffff1673ffffffffffffffffffffffffffffffffffffffff168152602001908152602001600020905081816003019080519060200190610623929190610feb565b505050565b600073ffffffffffffffffffffffffffffffffffffffff16600160003373ffffffffffffffffffffffffffffffffffffffff1673ffffffffffffffffffffffffffffffffffffffff16815260200190815260200160002060000160009054906101000a900473ffffffffffffffffffffffffffffffffffffffff1673ffffffffffffffffffffffffffffffffffffffff16146106f9576040517f08c379a00000000000000000000000000000000000000000000000000000000081526004016106f0906115db565b60405180910390fd5b60405180608001604052803373ffffffffffffffffffffffffffffffffffffffff16815260200182815260200183815260200160405180602001604052806000815250815250600160003373ffffffffffffffffffffffffffffffffffffffff1673ffffffffffffffffffffffffffffffffffffffff16815260200190815260200160002060008201518160000160006101000a81548173ffffffffffffffffffffffffffffffffffffffff021916908373ffffffffffffffffffffffffffffffffffffffff16021790555060208201518160010190805190602001906107e1929190610feb565b5060408201518160020190805190602001906107fe929190610feb565b50606082015181600301908051906020019061081b929190610feb565b5090505060046000815461082e906117e6565b919050819055505050565b60008073ffffffffffffffffffffffffffffffffffffffff16600160008473ffffffffffffffffffffffffffffffffffffffff1673ffffffffffffffffffffffffffffffffffffffff16815260200190815260200160002060000160009054906101000a900473ffffffffffffffffffffffffffffffffffffffff1673ffffffffffffffffffffffffffffffffffffffff1614159050919050565b600360003373ffffffffffffffffffffffffffffffffffffffff1673ffffffffffffffffffffffffffffffffffffffff16815260200190815260200160002060009054906101000a900460ff16610960576040517f08c379a00000000000000000000000000000000000000000000000000000000081526004016109579061159b565b60405180910390fd5b600061096b33610363565b9050600260003373ffffffffffffffffffffffffffffffffffffffff1673ffffffffffffffffffffffffffffffffffffffff16815260200190815260200160002060405180608001604052808381526020018481526020016000815260200142815250908060018154018082558091505060019003906000526020600020906007020160009091909190915060008201518160000160008201518160000160006101000a81548173ffffffffffffffffffffffffffffffffffffffff021916908373ffffffffffffffffffffffffffffffffffffffff1602179055506020820151816001019080519060200190610a63929190610feb565b506040820151816002019080519060200190610a80929190610feb565b506060820151816003019080519060200190610a9d929190610feb565b5050506020820151816004019080519060200190610abc929190610feb565b50604082015181600501556060820151816006015550505050565b6060600360003373ffffffffffffffffffffffffffffffffffffffff1673ffffffffffffffffffffffffffffffffffffffff16815260200190815260200160002060009054906101000a900460ff16610b65576040517f08c379a0000000000000000000000000000000000000000000000000000000008152600401610b5c9061159b565b60405180910390fd5b600260008373ffffffffffffffffffffffffffffffffffffffff1673ffffffffffffffffffffffffffffffffffffffff168152602001908152602001600020805480602002602001604051908101604052809291908181526020016000905b82821015610ebc5783829060005260206000209060070201604051806080016040529081600082016040518060800160405290816000820160009054906101000a900473ffffffffffffffffffffffffffffffffffffffff1673ffffffffffffffffffffffffffffffffffffffff1673ffffffffffffffffffffffffffffffffffffffff168152602001600182018054610c5d90611783565b80601f0160208091040260200160405190810160405280929190818152602001828054610c8990611783565b8015610cd65780601f10610cab57610100808354040283529160200191610cd6565b820191906000526020600020905b815481529060010190602001808311610cb957829003601f168201915b50505050508152602001600282018054610cef90611783565b80601f0160208091040260200160405190810160405280929190818152602001828054610d1b90611783565b8015610d685780601f10610d3d57610100808354040283529160200191610d68565b820191906000526020600020905b815481529060010190602001808311610d4b57829003601f168201915b50505050508152602001600382018054610d8190611783565b80601f0160208091040260200160405190810160405280929190818152602001828054610dad90611783565b8015610dfa5780601f10610dcf57610100808354040283529160200191610dfa565b820191906000526020600020905b815481529060010190602001808311610ddd57829003601f168201915b5050505050815250508152602001600482018054610e1790611783565b80601f0160208091040260200160405190810160405280929190818152602001828054610e4390611783565b8015610e905780601f10610e6557610100808354040283529160200191610e90565b820191906000526020600020905b815481529060010190602001808311610e7357829003601f168201915b505050505081526020016005820154815260200160068201548152505081526020019060010190610bc4565b505050509050919050565b600360003373ffffffffffffffffffffffffffffffffffffffff1673ffffffffffffffffffffffffffffffffffffffff16815260200190815260200160002060009054906101000a900460ff16610f53576040517f08c379a0000000000000000000000000000000000000000000000000000000008152600401610f4a9061159b565b60405180910390fd5b6000600360003373ffffffffffffffffffffffffffffffffffffffff1673ffffffffffffffffffffffffffffffffffffffff16815260200190815260200160002060006101000a81548160ff021916908315150217905550565b6040518060800160405280600073ffffffffffffffffffffffffffffffffffffffff1681526020016060815260200160608152602001606081525090565b828054610ff790611783565b90600052602060002090601f0160209004810192826110195760008555611060565b82601f1061103257805160ff1916838001178555611060565b82800160010185558215611060579182015b8281111561105f578251825591602001919060010190611044565b5b50905061106d9190611071565b5090565b5b8082111561108a576000816000905550600101611072565b5090565b60006110a161109c84611642565b61161d565b9050828152602081018484840111156110b957600080fd5b6110c4848285611741565b509392505050565b6000813590506110db81611971565b92915050565b600082601f8301126110f257600080fd5b813561110284826020860161108e565b91505092915050565b60006020828403121561111d57600080fd5b600061112b848285016110cc565b91505092915050565b60006020828403121561114657600080fd5b600082013567ffffffffffffffff81111561116057600080fd5b61116c848285016110e1565b91505092915050565b6000806040838503121561118857600080fd5b600083013567ffffffffffffffff8111156111a257600080fd5b6111ae858286016110e1565b925050602083013567ffffffffffffffff8111156111cb57600080fd5b6111d7858286016110e1565b9150509250929050565b60006111ed83836114ae565b905092915050565b6111fe816116f9565b82525050565b600061120f82611698565b61121981856116bb565b93508360208202850161122b85611673565b8060005b85811015611267578484038952815161124885826111e1565b9450611253836116ae565b925060208a0199505060018101905061122f565b50829750879550505050505092915050565b6112828161170b565b82525050565b6000815461129581611783565b61129f81866116cc565b945060018216600081146112ba57600181146112cb576112fe565b60ff198316865281860193506112fe565b6112d485611683565b60005b838110156112f6578154818901526001820191506020810190506112d7565b838801955050505b50505092915050565b6000611312826116a3565b61131c81856116d7565b935061132c818560208601611750565b611335816118bc565b840191505092915050565b600061134d600e836116e8565b9150611358826118cd565b602082019050919050565b60006113706015836116e8565b915061137b826118f6565b602082019050919050565b60006113936018836116e8565b915061139e8261191f565b602082019050919050565b60006113b6601a836116e8565b91506113c182611948565b602082019050919050565b60006080830160008301516113e460008601826111f5565b50602083015184820360208601526113fc8282611307565b915050604083015184820360408601526114168282611307565b915050606083015184820360608601526114308282611307565b9150508091505092915050565b600060808301600083015161145560008601826111f5565b506020830151848203602086015261146d8282611307565b915050604083015184820360408601526114878282611307565b915050606083015184820360608601526114a18282611307565b9150508091505092915050565b600060808301600083015184820360008601526114cb82826113cc565b915050602083015184820360208601526114e58282611307565b91505060408301516114fa6040860182611518565b50606083015161150d6060860182611518565b508091505092915050565b61152181611737565b82525050565b60006115338284611288565b915081905092915050565b600060208201905081810360008301526115588184611204565b905092915050565b60006020820190506115756000830184611279565b92915050565b6000602082019050818103600083015261159481611340565b9050919050565b600060208201905081810360008301526115b481611363565b9050919050565b600060208201905081810360008301526115d481611386565b9050919050565b600060208201905081810360008301526115f4816113a9565b9050919050565b60006020820190508181036000830152611615818461143d565b905092915050565b6000611627611638565b905061163382826117b5565b919050565b6000604051905090565b600067ffffffffffffffff82111561165d5761165c61188d565b5b611666826118bc565b9050602081019050919050565b6000819050602082019050919050565b60008190508160005260206000209050919050565b600081519050919050565b600081519050919050565b6000602082019050919050565b600082825260208201905092915050565b600081905092915050565b600082825260208201905092915050565b600082825260208201905092915050565b600061170482611717565b9050919050565b60008115159050919050565b600073ffffffffffffffffffffffffffffffffffffffff82169050919050565b6000819050919050565b82818337600083830152505050565b60005b8381101561176e578082015181840152602081019050611753565b8381111561177d576000848401525b50505050565b6000600282049050600182168061179b57607f821691505b602082108114156117af576117ae61185e565b5b50919050565b6117be826118bc565b810181811067ffffffffffffffff821117156117dd576117dc61188d565b5b80604052505050565b60006117f182611737565b91507fffffffffffffffffffffffffffffffffffffffffffffffffffffffffffffffff8214156118245761182361182f565b5b600182019050919050565b7f4e487b7100000000000000000000000000000000000000000000000000000000600052601160045260246000fd5b7f4e487b7100000000000000000000000000000000000000000000000000000000600052602260045260246000fd5b7f4e487b7100000000000000000000000000000000000000000000000000000000600052604160045260246000fd5b6000601f19601f8301169050919050565b7f57726f6e672070617373776f7264000000000000000000000000000000000000600082015250565b7f596f75206d757374206265206c6f6767656420696e0000000000000000000000600082015250565b7f596f7520646f6e74206861766520616e206163636f756e740000000000000000600082015250565b7f546865206163636f756e7420616c726561647920657869737473000000000000600082015250565b61197a816116f9565b811461198557600080fd5b5056fea26469706673582212208e755df9592a81cd83b5e31227cbe378fab7bf41a5c2c509cee259bfaa25060764736f6c63430008020033",
  "immutableReferences": {},
  "source": "pragma solidity >=0.8.0 <0.9.0;\r\n\r\ncontract V {\r\n\taddress owner;\r\n\r\n\tmapping(address => User) accounts;\r\n\tmapping(address => Vit[]) vits;\r\n\tmapping(address => bool) isLogged;\r\n\r\n\tuint usersCount = 0;\r\n\r\n\tstruct User {\r\n\t\taddress login;\r\n\t\tstring password;\r\n\t\tstring username;\r\n\t\tstring image;\r\n\t}\r\n\r\n\tstruct Vit {\r\n\t\tUser author;\r\n\t\tstring content;\r\n\t\tuint likes;\r\n\t\tuint created;\r\n\t}\r\n\r\n\tmodifier onlyLogged() {\r\n\t\trequire(isLogged[msg.sender], 'You must be logged in');\r\n\t\t_;\r\n\t}\r\n\r\n\tmodifier onlyOwner() {\r\n\t\trequire(msg.sender == owner, 'You are not the owner');\r\n\t\t_;\r\n\t}\r\n\r\n\tconstructor() {\r\n\t\towner = msg.sender;\r\n\t}\r\n\r\n\tfunction SignUp(string memory _username, string memory _password) public {\r\n\t\trequire(accounts[msg.sender].login == address(0), 'The account already exists');\r\n\r\n\t\taccounts[msg.sender] = User({\r\n\t\t\tlogin: msg.sender,\r\n\t\t\tpassword: _password,\r\n\t\t\tusername: _username,\r\n\t\t\timage: ''\r\n\t\t});\r\n\r\n\t\t++usersCount;\r\n\t}\r\n\r\n\tfunction Login(string memory _password) public {\r\n\t\trequire(accounts[msg.sender].login != address(0), 'You dont have an account');\r\n\t\trequire(keccak256(bytes(accounts[msg.sender].password)) == keccak256(bytes(_password)), 'Wrong password');\r\n\r\n\t\tisLogged[msg.sender] = true;\r\n\t}\r\n\r\n\tfunction Logout() public onlyLogged {\r\n\t\tisLogged[msg.sender] = false;\r\n\t}\r\n\r\n\tfunction AddVit(string memory _content) public onlyLogged {\r\n\t\tUser memory _user = GetUser(msg.sender);\r\n\r\n\t\tvits[msg.sender].push(Vit({\r\n\t\t\tauthor: _user,\r\n\t\t\tcontent: _content,\r\n\t\t\tlikes: 0,\r\n\t\t\tcreated: block.timestamp\r\n\t\t}));\r\n\t}\r\n\r\n\tfunction UserVits(address _user) external view onlyLogged returns(Vit[] memory) {\r\n\t\treturn vits[_user];\r\n\t}\r\n\r\n\tfunction CheckSignUp(address _user) external view returns(bool) {\r\n\t\treturn accounts[_user].login != address(0);\r\n\t}\r\n\r\n\tfunction GetUser(address _user) public view returns(User memory) {\r\n\t\treturn accounts[_user];\r\n\t}\r\n\r\n\tfunction UpdateUser(string memory _image) public {\r\n\t\tUser storage _user = accounts[msg.sender];\r\n\r\n\t\t_user.image = _image;\r\n\t}\r\n}\r\n",
  "sourcePath": "D:\\Repositories\\V\\contracts\\contracts\\V.sol",
  "compiler": {
    "name": "solc",
    "version": "0.8.2+commit.661d1103.Emscripten.clang"
  },
  "schemaVersion": "3.4.16",
  "updatedAt": "2024-03-18T11:00:16.628Z",
  "networkType": "ethereum",
  "devdoc": {
    "kind": "dev",
    "methods": {},
    "version": 1
  },
  "userdoc": {
    "kind": "user",
    "methods": {},
    "version": 1
  }
}